{
  "contractName": "Wallet",
  "abi": [
    {
      "inputs": [
        {
          "internalType": "address[]",
          "name": "_approvers",
          "type": "address[]"
        },
        {
          "internalType": "uint256",
          "name": "_quorum",
          "type": "uint256"
        }
      ],
      "stateMutability": "nonpayable",
      "type": "constructor"
    },
    {
      "inputs": [
        {
          "internalType": "address",
          "name": "",
          "type": "address"
        },
        {
          "internalType": "uint256",
          "name": "",
          "type": "uint256"
        }
      ],
      "name": "approvals",
      "outputs": [
        {
          "internalType": "bool",
          "name": "",
          "type": "bool"
        }
      ],
      "stateMutability": "view",
      "type": "function"
    },
    {
      "inputs": [],
      "name": "quorum",
      "outputs": [
        {
          "internalType": "uint256",
          "name": "",
          "type": "uint256"
        }
      ],
      "stateMutability": "view",
      "type": "function"
    },
    {
      "inputs": [
        {
          "internalType": "uint256",
          "name": "",
          "type": "uint256"
        }
      ],
      "name": "transfers",
      "outputs": [
        {
          "internalType": "uint256",
          "name": "id",
          "type": "uint256"
        },
        {
          "internalType": "uint256",
          "name": "amount",
          "type": "uint256"
        },
        {
          "internalType": "address payable",
          "name": "to",
          "type": "address"
        },
        {
          "internalType": "uint256",
          "name": "approvals",
          "type": "uint256"
        },
        {
          "internalType": "bool",
          "name": "sent",
          "type": "bool"
        }
      ],
      "stateMutability": "view",
      "type": "function"
    },
    {
      "stateMutability": "payable",
      "type": "receive"
    },
    {
      "inputs": [],
      "name": "getApproves",
      "outputs": [
        {
          "internalType": "address[]",
          "name": "",
          "type": "address[]"
        }
      ],
      "stateMutability": "view",
      "type": "function"
    },
    {
      "inputs": [],
      "name": "getTransfers",
      "outputs": [
        {
          "components": [
            {
              "internalType": "uint256",
              "name": "id",
              "type": "uint256"
            },
            {
              "internalType": "uint256",
              "name": "amount",
              "type": "uint256"
            },
            {
              "internalType": "address payable",
              "name": "to",
              "type": "address"
            },
            {
              "internalType": "uint256",
              "name": "approvals",
              "type": "uint256"
            },
            {
              "internalType": "bool",
              "name": "sent",
              "type": "bool"
            }
          ],
          "internalType": "struct Wallet.Transfer[]",
          "name": "",
          "type": "tuple[]"
        }
      ],
      "stateMutability": "view",
      "type": "function"
    },
    {
      "inputs": [
        {
          "internalType": "uint256",
          "name": "amount",
          "type": "uint256"
        },
        {
          "internalType": "address payable",
          "name": "to",
          "type": "address"
        }
      ],
      "name": "createTransfer",
      "outputs": [],
      "stateMutability": "nonpayable",
      "type": "function"
    },
    {
      "inputs": [
        {
          "internalType": "uint256",
          "name": "id",
          "type": "uint256"
        }
      ],
      "name": "approveTransfer",
      "outputs": [],
      "stateMutability": "nonpayable",
      "type": "function"
    }
  ],
  "bytecode": "0x60806040523480156200001157600080fd5b5060405162001050380380620010508339818101604052620000379190810190620001ef565b81600090805190602001906200004f9291906200005f565b5080600181905550505062000312565b828054828255906000526020600020908101928215620000db579160200282015b82811115620000da5782518260006101000a81548173ffffffffffffffffffffffffffffffffffffffff021916908373ffffffffffffffffffffffffffffffffffffffff1602179055509160200191906001019062000080565b5b509050620000ea9190620000ee565b5090565b6200013191905b808211156200012d57600081816101000a81549073ffffffffffffffffffffffffffffffffffffffff021916905550600101620000f5565b5090565b90565b6000815190506200014581620002de565b92915050565b600082601f8301126200015d57600080fd5b8151620001746200016e8262000277565b62000249565b915081818352602084019350602081019050838560208402820111156200019a57600080fd5b60005b83811015620001ce5781620001b3888262000134565b8452602084019350602083019250506001810190506200019d565b5050505092915050565b600081519050620001e981620002f8565b92915050565b600080604083850312156200020357600080fd5b600083015167ffffffffffffffff8111156200021e57600080fd5b6200022c858286016200014b565b92505060206200023f85828601620001d8565b9150509250929050565b6000604051905081810181811067ffffffffffffffff821117156200026d57600080fd5b8060405250919050565b600067ffffffffffffffff8211156200028f57600080fd5b602082029050602081019050919050565b6000620002ad82620002b4565b9050919050565b600073ffffffffffffffffffffffffffffffffffffffff82169050919050565b6000819050919050565b620002e981620002a0565b8114620002f557600080fd5b50565b6200030381620002d4565b81146200030f57600080fd5b50565b610d2e80620003226000396000f3fe6080604052600436106100745760003560e01c80639377d7111161004e5780639377d711146100ff578063cacca4a014610140578063d6e4722114610169578063ffabc673146101945761007b565b80631703a018146100805780632f65142c146100ab5780634c12fa47146100d65761007b565b3661007b57005b600080fd5b34801561008c57600080fd5b506100956101d1565b6040516100a29190610b68565b60405180910390f35b3480156100b757600080fd5b506100c06101d7565b6040516100cd9190610aeb565b60405180910390f35b3480156100e257600080fd5b506100fd60048036036100f89190810190610850565b6102c5565b005b34801561010b57600080fd5b5061012660048036036101219190810190610827565b6103c1565b604051610137959493929190610b83565b60405180910390f35b34801561014c57600080fd5b5061016760048036036101629190810190610827565b610431565b005b34801561017557600080fd5b5061017e6106ef565b60405161018b9190610ac9565b60405180910390f35b3480156101a057600080fd5b506101bb60048036036101b691908101906107eb565b61077d565b6040516101c89190610b0d565b60405180910390f35b60015481565b60606002805480602002602001604051908101604052809291908181526020016000905b828210156102bc57838290600052602060002090600502016040518060a001604052908160008201548152602001600182015481526020016002820160009054906101000a900473ffffffffffffffffffffffffffffffffffffffff1673ffffffffffffffffffffffffffffffffffffffff1673ffffffffffffffffffffffffffffffffffffffff168152602001600382015481526020016004820160009054906101000a900460ff161515151581525050815260200190600101906101fb565b50505050905090565b60026040518060a0016040528060028054905081526020018481526020018373ffffffffffffffffffffffffffffffffffffffff16815260200160008152602001600015158152509080600181540180825580915050600190039060005260206000209060050201600090919091909150600082015181600001556020820151816001015560408201518160020160006101000a81548173ffffffffffffffffffffffffffffffffffffffff021916908373ffffffffffffffffffffffffffffffffffffffff1602179055506060820151816003015560808201518160040160006101000a81548160ff02191690831515021790555050505050565b600281815481106103ce57fe5b90600052602060002090600502016000915090508060000154908060010154908060020160009054906101000a900473ffffffffffffffffffffffffffffffffffffffff16908060030154908060040160009054906101000a900460ff16905085565b600015156002828154811061044257fe5b906000526020600020906005020160040160009054906101000a900460ff161515146104a3576040517f08c379a000000000000000000000000000000000000000000000000000000000815260040161049a90610b28565b60405180910390fd5b60001515600360003373ffffffffffffffffffffffffffffffffffffffff1673ffffffffffffffffffffffffffffffffffffffff168152602001908152602001600020600083815260200190815260200160002060009054906101000a900460ff16151514610547576040517f08c379a000000000000000000000000000000000000000000000000000000000815260040161053e90610b48565b60405180910390fd5b6001600360003373ffffffffffffffffffffffffffffffffffffffff1673ffffffffffffffffffffffffffffffffffffffff168152602001908152602001600020600083815260200190815260200160002060006101000a81548160ff021916908315150217905550600281815481106105bd57fe5b906000526020600020906005020160030160008154809291906001019190505550600154600282815481106105ee57fe5b906000526020600020906005020160030154106106ec5760016002828154811061061457fe5b906000526020600020906005020160040160006101000a81548160ff02191690831515021790555060006002828154811061064b57fe5b906000526020600020906005020160020160009054906101000a900473ffffffffffffffffffffffffffffffffffffffff16905060006002838154811061068e57fe5b90600052602060002090600502016001015490508173ffffffffffffffffffffffffffffffffffffffff166108fc829081150290604051600060405180830381858888f193505050501580156106e8573d6000803e3d6000fd5b5050505b50565b6060600080548060200260200160405190810160405280929190818152602001828054801561077357602002820191906000526020600020905b8160009054906101000a900473ffffffffffffffffffffffffffffffffffffffff1673ffffffffffffffffffffffffffffffffffffffff1681526020019060010190808311610729575b5050505050905090565b60036020528160005260406000206020528060005260406000206000915091509054906101000a900460ff1681565b6000813590506107bb81610cb3565b92915050565b6000813590506107d081610cca565b92915050565b6000813590506107e581610ce1565b92915050565b600080604083850312156107fe57600080fd5b600061080c858286016107ac565b925050602061081d858286016107d6565b9150509250929050565b60006020828403121561083957600080fd5b6000610847848285016107d6565b91505092915050565b6000806040838503121561086357600080fd5b6000610871858286016107d6565b9250506020610882858286016107c1565b9150509250929050565b600061089883836108da565b60208301905092915050565b60006108b08383610a43565b60a08301905092915050565b6108c581610c6b565b82525050565b6108d481610c6b565b82525050565b6108e381610c59565b82525050565b60006108f482610bf6565b6108fe8185610c26565b935061090983610bd6565b8060005b8381101561093a578151610921888261088c565b975061092c83610c0c565b92505060018101905061090d565b5085935050505092915050565b600061095282610c01565b61095c8185610c37565b935061096783610be6565b8060005b8381101561099857815161097f88826108a4565b975061098a83610c19565b92505060018101905061096b565b5085935050505092915050565b6109ae81610c7d565b82525050565b6109bd81610c7d565b82525050565b60006109d0601f83610c48565b91507f5472616e736665722068617320616c7265616479206265656e2073656e742e006000830152602082019050919050565b6000610a10601d83610c48565b91507f43616e6e6f7420617070726f7665205472616e736665722074776963650000006000830152602082019050919050565b60a082016000820151610a596000850182610aab565b506020820151610a6c6020850182610aab565b506040820151610a7f60408501826108bc565b506060820151610a926060850182610aab565b506080820151610aa560808501826109a5565b50505050565b610ab481610ca9565b82525050565b610ac381610ca9565b82525050565b60006020820190508181036000830152610ae381846108e9565b905092915050565b60006020820190508181036000830152610b058184610947565b905092915050565b6000602082019050610b2260008301846109b4565b92915050565b60006020820190508181036000830152610b41816109c3565b9050919050565b60006020820190508181036000830152610b6181610a03565b9050919050565b6000602082019050610b7d6000830184610aba565b92915050565b600060a082019050610b986000830188610aba565b610ba56020830187610aba565b610bb260408301866108cb565b610bbf6060830185610aba565b610bcc60808301846109b4565b9695505050505050565b6000819050602082019050919050565b6000819050602082019050919050565b600081519050919050565b600081519050919050565b6000602082019050919050565b6000602082019050919050565b600082825260208201905092915050565b600082825260208201905092915050565b600082825260208201905092915050565b6000610c6482610c89565b9050919050565b6000610c7682610c89565b9050919050565b60008115159050919050565b600073ffffffffffffffffffffffffffffffffffffffff82169050919050565b6000819050919050565b610cbc81610c59565b8114610cc757600080fd5b50565b610cd381610c6b565b8114610cde57600080fd5b50565b610cea81610ca9565b8114610cf557600080fd5b5056fea2646970667358221220fa6a26d132a8f667935eb2b7f2acb5340cb6801aa3bb47b4c639efc10a97777d64736f6c63430006000033",
  "source": "pragma solidity >=0.6.0;\r\npragma experimental ABIEncoderV2;\r\n\r\ncontract Wallet {\r\n    address[] approvers; // for the array of addresses that are going to apprive ethereum address\r\n    uint256 public quorum; // the limit to spend ethereum when approved.\r\n\r\n    struct Transfer {\r\n        //  DS for all transfers\r\n        uint256 id; // a unique Id\r\n        uint256 amount; // amount to be sent\r\n        address payable to; // the address which u want to send\r\n        uint256 approvals; // No. of approvals sent.\r\n        bool sent; // state for the transaction which is sent or not.\r\n    }\r\n\r\n    Transfer[] public transfers; // array for different Transfers\r\n\r\n    mapping(address => mapping(uint256 => bool)) public approvals; //  mappings of address to ID to transfer booleans.\r\n\r\n    constructor(address[] memory _approvers, uint256 _quorum) public {\r\n        approvers = _approvers;\r\n        quorum = _quorum;\r\n    }\r\n\r\n    function getApproves() external view returns (address[] memory) {\r\n        return approvers; // returns array of approvers.\r\n    }\r\n\r\n    // these functions are craeted because we want get functions to return the whole array.\r\n    function getTransfers() external view returns (Transfer[] memory) {\r\n        return transfers; // returns all array of tansfers\r\n    }\r\n\r\n    function createTransfer(uint256 amount, address payable to) external {\r\n        transfers.push(Transfer(transfers.length, amount, to, 0, false)); //\r\n    } // push to array of tansfers.\r\n\r\n    function approveTransfer(uint256 id) external {\r\n        require(transfers[id].sent == false, \"Transfer has already been sent.\");\r\n        require(\r\n            approvals[msg.sender][id] == false,\r\n            \"Cannot approve Transfer twice\"\r\n        );\r\n        // This function is for approving and send amount to address which is approved.\r\n\r\n        approvals[msg.sender][id] = true;\r\n        transfers[id].approvals++;\r\n\r\n        if (transfers[id].approvals >= quorum) {\r\n            transfers[id].sent = true;\r\n            address payable to = transfers[id].to;\r\n            uint256 amount = transfers[id].amount;\r\n            to.transfer(amount);\r\n        }\r\n    }\r\n\r\n    receive() external payable {} // receiving Ethers\r\n\r\n    modifier onlyApprover() {\r\n        bool allowed = false;\r\n        for (uint256 i = 0; i < approvers.length; i++) {\r\n            if (approvers[i] == msg.sender) {\r\n                allowed = true;\r\n            }\r\n        }\r\n        require(allowed == true, \"Only  Approver allowed!\");\r\n        _;\r\n    }\r\n}\r\n",
  "sourcePath": "C:\\Users\\chaha\\Downloads\\GIT\\MultiSig_contract\\contracts\\Wallet.sol",
  "compiler": {
    "name": "solc",
    "version": "0.6.0+commit.26b70077.Emscripten.clang"
  },
  "schemaVersion": "3.0.23",
  "updatedAt": "2020-07-13T09:01:18.426Z",
  "devdoc": {
    "methods": {}
  },
  "userdoc": {
    "methods": {}
  }
}